S00F00003836304D4B49492E737265634D
S113000019C020C01FC01EC01DC01CC01BC01AC008
S113001019C018C017C016C015C014C013C012C030
S113002011C010C00FC00EC00DC00CC00BC00AC060
S113003009C008C011241FBECFEFCDBFDFE3DEBF70
S113004002D0AFC0DDCFCF93DF9300D000D0CDB7C7
S1130050DEB786EC8093000482E0898384E48A839B
S113006082E88B8380EC8C838DE390E073D0F82E50
S11300708EE390E06FD0082F8FE390E06BD0182FC1
S1130080F01629F0F81621F008135BC001C0102FF8
S11300901D3308F04CC0812F90E05CD0082F8430D1
S11300A008F000E01F5F1D3330F010E004C011E0E1
S11300B002C000E011E0612F8DE390E053D0612F86
S11300C08EE390E04FD0612F8FE390E04BD0E12E90
S11300D0F12C602FC70146D0FE01E00FF11D818194
S11300E0E0E0F4E0848310851870C12C6894DD246A
S11300F0D2F8F6018085887081271827812381F042
S11301000F5F043008F000E0602FC7012BD0E1E05E
S1130110F0E0EC0FFD1FE00FF11D8081F6018483F8
S113012087E893E10197F1F700C00000E2CF80E097
S113013090E010D0082F843008F4B9CF00E011E02B
S1130140BACF80E090E006D0082F843008F0B1CF19
S113015010E0A8CF03D0808199270895FC01E050D6
S1130160FC4E0895262F0E94AE000080021619F05E
S11301700E94BE00019701970895262FAF93BF9365
S1130180E0E0F0E1328131FDFDCFDC01A050BC4E56
S11301902C932DE924BF23E020830196BF91AF91D6
S10901A00895F894FFCF5E
S9030000FC
